{
  "contractName": "SolnSquareVerifier",
  "abi": [
    {
      "inputs": [
        {
          "internalType": "address",
          "name": "verifierAddress",
          "type": "address"
        },
        {
          "internalType": "string",
          "name": "name",
          "type": "string"
        },
        {
          "internalType": "string",
          "name": "symbol",
          "type": "string"
        }
      ],
      "payable": false,
      "stateMutability": "nonpayable",
      "type": "constructor"
    },
    {
      "anonymous": false,
      "inputs": [
        {
          "indexed": true,
          "internalType": "address",
          "name": "owner",
          "type": "address"
        },
        {
          "indexed": true,
          "internalType": "address",
          "name": "approved",
          "type": "address"
        },
        {
          "indexed": true,
          "internalType": "uint256",
          "name": "tokenId",
          "type": "uint256"
        }
      ],
      "name": "Approval",
      "type": "event"
    },
    {
      "anonymous": false,
      "inputs": [
        {
          "indexed": true,
          "internalType": "address",
          "name": "owner",
          "type": "address"
        },
        {
          "indexed": true,
          "internalType": "address",
          "name": "operator",
          "type": "address"
        },
        {
          "indexed": false,
          "internalType": "bool",
          "name": "approved",
          "type": "bool"
        }
      ],
      "name": "ApprovalForAll",
      "type": "event"
    },
    {
      "anonymous": false,
      "inputs": [
        {
          "indexed": true,
          "internalType": "address",
          "name": "previousOwner",
          "type": "address"
        },
        {
          "indexed": true,
          "internalType": "address",
          "name": "newOwner",
          "type": "address"
        }
      ],
      "name": "OwnershipTransferred",
      "type": "event"
    },
    {
      "anonymous": false,
      "inputs": [
        {
          "indexed": false,
          "internalType": "address",
          "name": "_address",
          "type": "address"
        }
      ],
      "name": "Paused",
      "type": "event"
    },
    {
      "anonymous": false,
      "inputs": [
        {
          "indexed": true,
          "internalType": "address",
          "name": "owner",
          "type": "address"
        },
        {
          "indexed": true,
          "internalType": "uint256",
          "name": "index",
          "type": "uint256"
        },
        {
          "indexed": false,
          "internalType": "bytes32",
          "name": "key",
          "type": "bytes32"
        }
      ],
      "name": "SolutionAdded",
      "type": "event"
    },
    {
      "anonymous": false,
      "inputs": [
        {
          "indexed": true,
          "internalType": "address",
          "name": "from",
          "type": "address"
        },
        {
          "indexed": true,
          "internalType": "address",
          "name": "to",
          "type": "address"
        },
        {
          "indexed": true,
          "internalType": "uint256",
          "name": "tokenId",
          "type": "uint256"
        }
      ],
      "name": "Transfer",
      "type": "event"
    },
    {
      "anonymous": false,
      "inputs": [
        {
          "indexed": false,
          "internalType": "address",
          "name": "_address",
          "type": "address"
        }
      ],
      "name": "Unpaused",
      "type": "event"
    },
    {
      "constant": false,
      "inputs": [
        {
          "internalType": "bytes32",
          "name": "_myid",
          "type": "bytes32"
        },
        {
          "internalType": "string",
          "name": "_result",
          "type": "string"
        }
      ],
      "name": "__callback",
      "outputs": [],
      "payable": false,
      "stateMutability": "nonpayable",
      "type": "function"
    },
    {
      "constant": false,
      "inputs": [
        {
          "internalType": "bytes32",
          "name": "_myid",
          "type": "bytes32"
        },
        {
          "internalType": "string",
          "name": "_result",
          "type": "string"
        },
        {
          "internalType": "bytes",
          "name": "_proof",
          "type": "bytes"
        }
      ],
      "name": "__callback",
      "outputs": [],
      "payable": false,
      "stateMutability": "nonpayable",
      "type": "function"
    },
    {
      "constant": false,
      "inputs": [
        {
          "internalType": "address",
          "name": "to",
          "type": "address"
        },
        {
          "internalType": "uint256",
          "name": "tokenId",
          "type": "uint256"
        }
      ],
      "name": "approve",
      "outputs": [],
      "payable": false,
      "stateMutability": "nonpayable",
      "type": "function"
    },
    {
      "constant": true,
      "inputs": [
        {
          "internalType": "address",
          "name": "owner",
          "type": "address"
        }
      ],
      "name": "balanceOf",
      "outputs": [
        {
          "internalType": "uint256",
          "name": "",
          "type": "uint256"
        }
      ],
      "payable": false,
      "stateMutability": "view",
      "type": "function"
    },
    {
      "constant": true,
      "inputs": [],
      "name": "baseTokenURI",
      "outputs": [
        {
          "internalType": "string",
          "name": "",
          "type": "string"
        }
      ],
      "payable": false,
      "stateMutability": "view",
      "type": "function"
    },
    {
      "constant": true,
      "inputs": [
        {
          "internalType": "uint256",
          "name": "tokenId",
          "type": "uint256"
        }
      ],
      "name": "getApproved",
      "outputs": [
        {
          "internalType": "address",
          "name": "",
          "type": "address"
        }
      ],
      "payable": false,
      "stateMutability": "view",
      "type": "function"
    },
    {
      "constant": true,
      "inputs": [
        {
          "internalType": "address",
          "name": "owner",
          "type": "address"
        },
        {
          "internalType": "address",
          "name": "operator",
          "type": "address"
        }
      ],
      "name": "isApprovedForAll",
      "outputs": [
        {
          "internalType": "bool",
          "name": "",
          "type": "bool"
        }
      ],
      "payable": false,
      "stateMutability": "view",
      "type": "function"
    },
    {
      "constant": false,
      "inputs": [
        {
          "internalType": "address",
          "name": "to",
          "type": "address"
        },
        {
          "internalType": "uint256",
          "name": "tokenId",
          "type": "uint256"
        }
      ],
      "name": "mint",
      "outputs": [
        {
          "internalType": "bool",
          "name": "",
          "type": "bool"
        }
      ],
      "payable": false,
      "stateMutability": "nonpayable",
      "type": "function"
    },
    {
      "constant": true,
      "inputs": [],
      "name": "name",
      "outputs": [
        {
          "internalType": "string",
          "name": "",
          "type": "string"
        }
      ],
      "payable": false,
      "stateMutability": "view",
      "type": "function"
    },
    {
      "constant": true,
      "inputs": [],
      "name": "owner",
      "outputs": [
        {
          "internalType": "address",
          "name": "",
          "type": "address"
        }
      ],
      "payable": false,
      "stateMutability": "view",
      "type": "function"
    },
    {
      "constant": true,
      "inputs": [
        {
          "internalType": "uint256",
          "name": "tokenId",
          "type": "uint256"
        }
      ],
      "name": "ownerOf",
      "outputs": [
        {
          "internalType": "address",
          "name": "",
          "type": "address"
        }
      ],
      "payable": false,
      "stateMutability": "view",
      "type": "function"
    },
    {
      "constant": false,
      "inputs": [],
      "name": "pause",
      "outputs": [],
      "payable": false,
      "stateMutability": "nonpayable",
      "type": "function"
    },
    {
      "constant": false,
      "inputs": [
        {
          "internalType": "address",
          "name": "from",
          "type": "address"
        },
        {
          "internalType": "address",
          "name": "to",
          "type": "address"
        },
        {
          "internalType": "uint256",
          "name": "tokenId",
          "type": "uint256"
        }
      ],
      "name": "safeTransferFrom",
      "outputs": [],
      "payable": false,
      "stateMutability": "nonpayable",
      "type": "function"
    },
    {
      "constant": false,
      "inputs": [
        {
          "internalType": "address",
          "name": "from",
          "type": "address"
        },
        {
          "internalType": "address",
          "name": "to",
          "type": "address"
        },
        {
          "internalType": "uint256",
          "name": "tokenId",
          "type": "uint256"
        },
        {
          "internalType": "bytes",
          "name": "_data",
          "type": "bytes"
        }
      ],
      "name": "safeTransferFrom",
      "outputs": [],
      "payable": false,
      "stateMutability": "nonpayable",
      "type": "function"
    },
    {
      "constant": false,
      "inputs": [
        {
          "internalType": "address",
          "name": "to",
          "type": "address"
        },
        {
          "internalType": "bool",
          "name": "approved",
          "type": "bool"
        }
      ],
      "name": "setApprovalForAll",
      "outputs": [],
      "payable": false,
      "stateMutability": "nonpayable",
      "type": "function"
    },
    {
      "constant": true,
      "inputs": [
        {
          "internalType": "bytes4",
          "name": "interfaceId",
          "type": "bytes4"
        }
      ],
      "name": "supportsInterface",
      "outputs": [
        {
          "internalType": "bool",
          "name": "",
          "type": "bool"
        }
      ],
      "payable": false,
      "stateMutability": "view",
      "type": "function"
    },
    {
      "constant": true,
      "inputs": [],
      "name": "symbol",
      "outputs": [
        {
          "internalType": "string",
          "name": "",
          "type": "string"
        }
      ],
      "payable": false,
      "stateMutability": "view",
      "type": "function"
    },
    {
      "constant": true,
      "inputs": [
        {
          "internalType": "uint256",
          "name": "index",
          "type": "uint256"
        }
      ],
      "name": "tokenByIndex",
      "outputs": [
        {
          "internalType": "uint256",
          "name": "",
          "type": "uint256"
        }
      ],
      "payable": false,
      "stateMutability": "view",
      "type": "function"
    },
    {
      "constant": true,
      "inputs": [
        {
          "internalType": "address",
          "name": "owner",
          "type": "address"
        },
        {
          "internalType": "uint256",
          "name": "index",
          "type": "uint256"
        }
      ],
      "name": "tokenOfOwnerByIndex",
      "outputs": [
        {
          "internalType": "uint256",
          "name": "",
          "type": "uint256"
        }
      ],
      "payable": false,
      "stateMutability": "view",
      "type": "function"
    },
    {
      "constant": true,
      "inputs": [
        {
          "internalType": "uint256",
          "name": "tokenId",
          "type": "uint256"
        }
      ],
      "name": "tokenURI",
      "outputs": [
        {
          "internalType": "string",
          "name": "",
          "type": "string"
        }
      ],
      "payable": false,
      "stateMutability": "view",
      "type": "function"
    },
    {
      "constant": true,
      "inputs": [],
      "name": "totalSupply",
      "outputs": [
        {
          "internalType": "uint256",
          "name": "",
          "type": "uint256"
        }
      ],
      "payable": false,
      "stateMutability": "view",
      "type": "function"
    },
    {
      "constant": false,
      "inputs": [
        {
          "internalType": "address",
          "name": "from",
          "type": "address"
        },
        {
          "internalType": "address",
          "name": "to",
          "type": "address"
        },
        {
          "internalType": "uint256",
          "name": "tokenId",
          "type": "uint256"
        }
      ],
      "name": "transferFrom",
      "outputs": [],
      "payable": false,
      "stateMutability": "nonpayable",
      "type": "function"
    },
    {
      "constant": false,
      "inputs": [
        {
          "internalType": "address",
          "name": "newOwner",
          "type": "address"
        }
      ],
      "name": "transferOwnership",
      "outputs": [],
      "payable": false,
      "stateMutability": "nonpayable",
      "type": "function"
    },
    {
      "constant": false,
      "inputs": [],
      "name": "unpause",
      "outputs": [],
      "payable": false,
      "stateMutability": "nonpayable",
      "type": "function"
    },
    {
      "constant": true,
      "inputs": [],
      "name": "zokratesContract",
      "outputs": [
        {
          "internalType": "contract ZokratesVerifier",
          "name": "",
          "type": "address"
        }
      ],
      "payable": false,
      "stateMutability": "view",
      "type": "function"
    },
    {
      "constant": false,
      "inputs": [
        {
          "internalType": "address",
          "name": "_owner",
          "type": "address"
        },
        {
          "internalType": "uint256",
          "name": "_index",
          "type": "uint256"
        },
        {
          "internalType": "bytes32",
          "name": "_key",
          "type": "bytes32"
        }
      ],
      "name": "addSolution",
      "outputs": [],
      "payable": false,
      "stateMutability": "nonpayable",
      "type": "function"
    },
    {
      "constant": false,
      "inputs": [
        {
          "internalType": "address",
          "name": "_to",
          "type": "address"
        },
        {
          "internalType": "uint256",
          "name": "_index",
          "type": "uint256"
        },
        {
          "internalType": "uint256[2]",
          "name": "a",
          "type": "uint256[2]"
        },
        {
          "internalType": "uint256[2][2]",
          "name": "b",
          "type": "uint256[2][2]"
        },
        {
          "internalType": "uint256[2]",
          "name": "c",
          "type": "uint256[2]"
        },
        {
          "internalType": "uint256[2]",
          "name": "input",
          "type": "uint256[2]"
        }
      ],
      "name": "mintToken",
      "outputs": [],
      "payable": false,
      "stateMutability": "nonpayable",
      "type": "function"
    }
  ],
  "bytecode": "0x60806040523480156200001157600080fd5b506040516200403d3803806200403d8339818101604052620000379190810190620003e7565b818181816040518060600160405280603f815260200162003ffe603f9139336000806101000a81548173ffffffffffffffffffffffffffffffffffffffff021916908373ffffffffffffffffffffffffffffffffffffffff1602179055506000809054906101000a900473ffffffffffffffffffffffffffffffffffffffff1673ffffffffffffffffffffffffffffffffffffffff16600073ffffffffffffffffffffffffffffffffffffffff167f8be0079c531659141344cd1fd0a4f28419497f9722a3daafe3b4186f6b6457e060405160405180910390a360008060146101000a81548160ff021916908315150217905550620001436301ffc9a760e01b6200022560201b60201c565b6200015b6380ac58cd60e01b6200022560201b60201c565b6200017363780e9d6360e01b6200022560201b60201c565b82600f90805190602001906200018b929190620002c5565b508160109080519060200190620001a4929190620002c5565b508060119080519060200190620001bd929190620002c5565b50620001d6635b5e139f60e01b6200022560201b60201c565b505050505082601360006101000a81548173ffffffffffffffffffffffffffffffffffffffff021916908373ffffffffffffffffffffffffffffffffffffffff1602179055505050506200054e565b63ffffffff60e01b817bffffffffffffffffffffffffffffffffffffffffffffffffffffffff191614156200025957600080fd5b6001806000837bffffffffffffffffffffffffffffffffffffffffffffffffffffffff19167bffffffffffffffffffffffffffffffffffffffffffffffffffffffff1916815260200190815260200160002060006101000a81548160ff02191690831515021790555050565b828054600181600116156101000203166002900490600052602060002090601f016020900481019282601f106200030857805160ff191683800117855562000339565b8280016001018555821562000339579182015b82811115620003385782518255916020019190600101906200031b565b5b5090506200034891906200034c565b5090565b6200037191905b808211156200036d57600081600090555060010162000353565b5090565b90565b600081519050620003858162000534565b92915050565b600082601f8301126200039d57600080fd5b8151620003b4620003ae826200049d565b6200046f565b91508082526020830160208301858383011115620003d157600080fd5b620003de838284620004fe565b50505092915050565b600080600060608486031215620003fd57600080fd5b60006200040d8682870162000374565b935050602084015167ffffffffffffffff8111156200042b57600080fd5b62000439868287016200038b565b925050604084015167ffffffffffffffff8111156200045757600080fd5b62000465868287016200038b565b9150509250925092565b6000604051905081810181811067ffffffffffffffff821117156200049357600080fd5b8060405250919050565b600067ffffffffffffffff821115620004b557600080fd5b601f19601f8301169050602081019050919050565b6000620004d782620004de565b9050919050565b600073ffffffffffffffffffffffffffffffffffffffff82169050919050565b60005b838110156200051e57808201518184015260208101905062000501565b838111156200052e576000848401525b50505050565b6200053f81620004ca565b81146200054b57600080fd5b50565b613aa0806200055e6000396000f3fe608060405234801561001057600080fd5b50600436106101a95760003560e01c80635df6a0bd116100f9578063a22cb46511610097578063ccd5835a11610071578063ccd5835a146104b8578063d547cfb7146104d4578063e985e9c5146104f2578063f2fde38b14610522576101a9565b8063a22cb46514610450578063b88d4fde1461046c578063c87b56dd14610488576101a9565b806374690502116100d357806374690502146103ee5780638456cb591461040a5780638da5cb5b1461041457806395d89b4114610432576101a9565b80635df6a0bd146103705780636352211e1461038e57806370a08231146103be576101a9565b806327dc297e116101665780633f4ba83a116101405780633f4ba83a146102ea57806340c10f19146102f457806342842e0e146103245780634f6ccce714610340576101a9565b806327dc297e146102825780632f745c591461029e57806338bbfa50146102ce576101a9565b806301ffc9a7146101ae57806306fdde03146101de578063081812fc146101fc578063095ea7b31461022c57806318160ddd1461024857806323b872dd14610266575b600080fd5b6101c860048036036101c39190810190612c7c565b61053e565b6040516101d59190613506565b60405180910390f35b6101e66105a6565b6040516101f39190613557565b60405180910390f35b61021660048036036102119190810190612cce565b610648565b604051610223919061343d565b60405180910390f35b61024660048036036102419190810190612a69565b610685565b005b610250610844565b60405161025d91906136d9565b60405180910390f35b610280600480360361027b9190810190612963565b610851565b005b61029c60048036036102979190810190612ba9565b610874565b005b6102b860048036036102b39190810190612a69565b6108b7565b6040516102c591906136d9565b60405180910390f35b6102e860048036036102e39190810190612bfd565b61092a565b005b6102f261092f565b005b61030e60048036036103099190810190612a69565b6109d1565b60405161031b9190613506565b60405180910390f35b61033e60048036036103399190810190612963565b610a45565b005b61035a60048036036103559190810190612cce565b610a65565b60405161036791906136d9565b60405180910390f35b610378610a99565b604051610385919061353c565b60405180910390f35b6103a860048036036103a39190810190612cce565b610abf565b6040516103b5919061343d565b60405180910390f35b6103d860048036036103d391908101906128fe565b610afc565b6040516103e591906136d9565b60405180910390f35b61040860048036036104039190810190612b31565b610b4c565b005b610412610cc0565b005b61041c610d64565b604051610429919061343d565b60405180910390f35b61043a610d8d565b6040516104479190613557565b60405180910390f35b61046a60048036036104659190810190612a2d565b610e2f565b005b610486600480360361048191908101906129b2565b610f65565b005b6104a2600480360361049d9190810190612cce565b610f8b565b6040516104af9190613557565b60405180910390f35b6104d260048036036104cd9190810190612aa5565b611088565b005b6104dc61126d565b6040516104e99190613557565b60405180910390f35b61050c60048036036105079190810190612927565b61130f565b6040516105199190613506565b60405180910390f35b61053c600480360361053791908101906128fe565b6113a3565b005b600060016000837bffffffffffffffffffffffffffffffffffffffffffffffffffffffff19167bffffffffffffffffffffffffffffffffffffffffffffffffffffffff1916815260200190815260200160002060009054906101000a900460ff169050919050565b6060600f8054600181600116156101000203166002900480601f01602080910402602001604051908101604052809291908181526020018280546001816001161561010002031660029004801561063e5780601f106106135761010080835404028352916020019161063e565b820191906000526020600020905b81548152906001019060200180831161062157829003601f168201915b5050505050905090565b60006003600083815260200190815260200160002060009054906101000a900473ffffffffffffffffffffffffffffffffffffffff169050919050565b61068e81610abf565b73ffffffffffffffffffffffffffffffffffffffff168273ffffffffffffffffffffffffffffffffffffffff1614156106fc576040517f08c379a00000000000000000000000000000000000000000000000000000000081526004016106f390613699565b60405180910390fd5b61070581610abf565b73ffffffffffffffffffffffffffffffffffffffff163373ffffffffffffffffffffffffffffffffffffffff16148061074c575061074b61074582610abf565b3361130f565b5b61078b576040517f08c379a0000000000000000000000000000000000000000000000000000000008152600401610782906135f9565b60405180910390fd5b816003600083815260200190815260200160002060006101000a81548173ffffffffffffffffffffffffffffffffffffffff021916908373ffffffffffffffffffffffffffffffffffffffff160217905550808273ffffffffffffffffffffffffffffffffffffffff166107fe83610abf565b73ffffffffffffffffffffffffffffffffffffffff167f8c5be1e5ebec7d5bd14f71427d1e84f3dd0314c0f7b2291e5b200ac8c7c3b92560405160405180910390a45050565b6000600880549050905090565b61085b338261152b565b61086457600080fd5b61086f8383836115c0565b505050565b6108b3828260006040519080825280601f01601f1916602001820160405280156108ad5781602001600182028038833980820191505090505b5061092a565b5050565b60006108c283610afc565b82106108cd57600080fd5b600660008473ffffffffffffffffffffffffffffffffffffffff1673ffffffffffffffffffffffffffffffffffffffff168152602001908152602001600020828154811061091757fe5b9060005260206000200154905092915050565b505050565b600060149054906101000a900460ff1661097e576040517f08c379a000000000000000000000000000000000000000000000000000000000815260040161097590613679565b60405180910390fd5b60008060146101000a81548160ff0219169083151502179055507f5db9ee0a495bf2e6ff9c91a7834c1ba4fdd244a5e8aa4e537bd38aeae4b073aa336040516109c79190613458565b60405180910390a1565b60003373ffffffffffffffffffffffffffffffffffffffff166000809054906101000a900473ffffffffffffffffffffffffffffffffffffffff1673ffffffffffffffffffffffffffffffffffffffff1614610a2c57600080fd5b610a3683836115e4565b610a3f82611605565b92915050565b610a6083838360405180602001604052806000815250610f65565b505050565b6000610a6f610844565b8210610a7a57600080fd5b60088281548110610a8757fe5b90600052602060002001549050919050565b601360009054906101000a900473ffffffffffffffffffffffffffffffffffffffff1681565b60006002600083815260200190815260200160002060009054906101000a900473ffffffffffffffffffffffffffffffffffffffff169050919050565b6000610b45600460008473ffffffffffffffffffffffffffffffffffffffff1673ffffffffffffffffffffffffffffffffffffffff168152602001908152602001600020611723565b9050919050565b610b54612566565b60405180604001604052808573ffffffffffffffffffffffffffffffffffffffff1681526020018481525090506014819080600181540180825580915050906001820390600052602060002090600202016000909192909190915060008201518160000160006101000a81548173ffffffffffffffffffffffffffffffffffffffff021916908373ffffffffffffffffffffffffffffffffffffffff16021790555060208201518160010155505050806015600084815260200190815260200160002060008201518160000160006101000a81548173ffffffffffffffffffffffffffffffffffffffff021916908373ffffffffffffffffffffffffffffffffffffffff16021790555060208201518160010155905050828473ffffffffffffffffffffffffffffffffffffffff167fb28582aaae510e6d1868676347916349fa4c0c49734e1a01e4373ff26a57f09284604051610cb29190613521565b60405180910390a350505050565b600060149054906101000a900460ff1615610d10576040517f08c379a0000000000000000000000000000000000000000000000000000000008152600401610d07906135b9565b60405180910390fd5b6001600060146101000a81548160ff0219169083151502179055507f62e78cea01bee320cd4e420270b5ea74000d11b0c9f74754ebdbfc544b05a25833604051610d5a9190613458565b60405180910390a1565b60008060009054906101000a900473ffffffffffffffffffffffffffffffffffffffff16905090565b606060108054600181600116156101000203166002900480601f016020809104026020016040519081016040528092919081815260200182805460018160011615610100020316600290048015610e255780601f10610dfa57610100808354040283529160200191610e25565b820191906000526020600020905b815481529060010190602001808311610e0857829003601f168201915b5050505050905090565b3373ffffffffffffffffffffffffffffffffffffffff168273ffffffffffffffffffffffffffffffffffffffff161415610e6857600080fd5b80600560003373ffffffffffffffffffffffffffffffffffffffff1673ffffffffffffffffffffffffffffffffffffffff16815260200190815260200160002060008473ffffffffffffffffffffffffffffffffffffffff1673ffffffffffffffffffffffffffffffffffffffff16815260200190815260200160002060006101000a81548160ff0219169083151502179055508173ffffffffffffffffffffffffffffffffffffffff163373ffffffffffffffffffffffffffffffffffffffff167f17307eab39ab6107e8899845ad3d59bd9653f200f220920489ca2b5937696c3183604051610f599190613506565b60405180910390a35050565b610f70848484610851565b610f7c84848484611731565b610f8557600080fd5b50505050565b6060610f9682611848565b610fd5576040517f08c379a0000000000000000000000000000000000000000000000000000000008152600401610fcc906135d9565b60405180910390fd5b601260008381526020019081526020016000208054600181600116156101000203166002900480601f01602080910402602001604051908101604052809291908181526020018280546001816001161561010002031660029004801561107c5780601f106110515761010080835404028352916020019161107c565b820191906000526020600020905b81548152906001019060200180831161105f57829003601f168201915b50505050509050919050565b6000848484846040516020016110a194939291906133ef565b604051602081830303815290604052805190602001209050600073ffffffffffffffffffffffffffffffffffffffff166015600083815260200190815260200160002060000160009054906101000a900473ffffffffffffffffffffffffffffffffffffffff1673ffffffffffffffffffffffffffffffffffffffff161461115e576040517f08c379a0000000000000000000000000000000000000000000000000000000008152600401611155906136b9565b60405180910390fd5b601360009054906101000a900473ffffffffffffffffffffffffffffffffffffffff1673ffffffffffffffffffffffffffffffffffffffff1663621e9ec0868686866040518563ffffffff1660e01b81526004016111bf94939291906134bf565b60206040518083038186803b1580156111d757600080fd5b505afa1580156111eb573d6000803e3d6000fd5b505050506040513d601f19601f8201168201806040525061120f9190810190612b80565b61124e576040517f08c379a000000000000000000000000000000000000000000000000000000000815260040161124590613619565b60405180910390fd5b611259878783610b4c565b61126387876109d1565b5050505050505050565b606060118054600181600116156101000203166002900480601f0160208091040260200160405190810160405280929190818152602001828054600181600116156101000203166002900480156113055780601f106112da57610100808354040283529160200191611305565b820191906000526020600020905b8154815290600101906020018083116112e857829003601f168201915b5050505050905090565b6000600560008473ffffffffffffffffffffffffffffffffffffffff1673ffffffffffffffffffffffffffffffffffffffff16815260200190815260200160002060008373ffffffffffffffffffffffffffffffffffffffff1673ffffffffffffffffffffffffffffffffffffffff16815260200190815260200160002060009054906101000a900460ff16905092915050565b3373ffffffffffffffffffffffffffffffffffffffff166000809054906101000a900473ffffffffffffffffffffffffffffffffffffffff1673ffffffffffffffffffffffffffffffffffffffff16146113fc57600080fd5b600073ffffffffffffffffffffffffffffffffffffffff168173ffffffffffffffffffffffffffffffffffffffff16141561146c576040517f08c379a000000000000000000000000000000000000000000000000000000000815260040161146390613599565b60405180910390fd5b806000806101000a81548173ffffffffffffffffffffffffffffffffffffffff021916908373ffffffffffffffffffffffffffffffffffffffff1602179055506000809054906101000a900473ffffffffffffffffffffffffffffffffffffffff1673ffffffffffffffffffffffffffffffffffffffff16600073ffffffffffffffffffffffffffffffffffffffff167f8be0079c531659141344cd1fd0a4f28419497f9722a3daafe3b4186f6b6457e060405160405180910390a350565b60008061153783610abf565b90508073ffffffffffffffffffffffffffffffffffffffff168473ffffffffffffffffffffffffffffffffffffffff1614806115a657508373ffffffffffffffffffffffffffffffffffffffff1661158e84610648565b73ffffffffffffffffffffffffffffffffffffffff16145b806115b757506115b6818561130f565b5b91505092915050565b6115cb8383836118ba565b6115d58382611ae9565b6115df8282611c87565b505050565b6115ee8282611d4e565b6115f88282611c87565b61160181611f00565b5050565b61160e81611848565b61164d576040517f08c379a0000000000000000000000000000000000000000000000000000000008152600401611644906135d9565b60405180910390fd5b6116f960118054600181600116156101000203166002900480601f0160208091040260200160405190810160405280929190818152602001828054600181600116156101000203166002900480156116e65780601f106116bb576101008083540402835291602001916116e6565b820191906000526020600020905b8154815290600101906020018083116116c957829003601f168201915b50505050506116f483611f4c565b612079565b60126000838152602001908152602001600020908051906020019061171f929190612596565b5050565b600081600001549050919050565b60006117528473ffffffffffffffffffffffffffffffffffffffff166120bd565b61175f5760019050611840565b60008473ffffffffffffffffffffffffffffffffffffffff1663150b7a02338887876040518563ffffffff1660e01b81526004016117a09493929190613473565b602060405180830381600087803b1580156117ba57600080fd5b505af11580156117ce573d6000803e3d6000fd5b505050506040513d601f19601f820116820180604052506117f29190810190612ca5565b905063150b7a0260e01b7bffffffffffffffffffffffffffffffffffffffffffffffffffffffff1916817bffffffffffffffffffffffffffffffffffffffffffffffffffffffff1916149150505b949350505050565b6000806002600084815260200190815260200160002060009054906101000a900473ffffffffffffffffffffffffffffffffffffffff169050600073ffffffffffffffffffffffffffffffffffffffff168173ffffffffffffffffffffffffffffffffffffffff161415915050919050565b6118c381610abf565b73ffffffffffffffffffffffffffffffffffffffff168373ffffffffffffffffffffffffffffffffffffffff1614611930576040517f08c379a000000000000000000000000000000000000000000000000000000000815260040161192790613639565b60405180910390fd5b600073ffffffffffffffffffffffffffffffffffffffff168273ffffffffffffffffffffffffffffffffffffffff1614156119a0576040517f08c379a000000000000000000000000000000000000000000000000000000000815260040161199790613579565b60405180910390fd5b6119a981612108565b6119f0600460008573ffffffffffffffffffffffffffffffffffffffff1673ffffffffffffffffffffffffffffffffffffffff1681526020019081526020016000206121c6565b611a37600460008473ffffffffffffffffffffffffffffffffffffffff1673ffffffffffffffffffffffffffffffffffffffff1681526020019081526020016000206121e9565b816002600083815260200190815260200160002060006101000a81548173ffffffffffffffffffffffffffffffffffffffff021916908373ffffffffffffffffffffffffffffffffffffffff160217905550808273ffffffffffffffffffffffffffffffffffffffff168473ffffffffffffffffffffffffffffffffffffffff167fddf252ad1be2c89b69c2b068fc378daa952ba7f163c4a11628f55a4df523b3ef60405160405180910390a4505050565b6000611b416001600660008673ffffffffffffffffffffffffffffffffffffffff1673ffffffffffffffffffffffffffffffffffffffff168152602001908152602001600020805490506121ff90919063ffffffff16565b9050600060076000848152602001908152602001600020549050818114611c2e576000600660008673ffffffffffffffffffffffffffffffffffffffff1673ffffffffffffffffffffffffffffffffffffffff1681526020019081526020016000208381548110611bae57fe5b9060005260206000200154905080600660008773ffffffffffffffffffffffffffffffffffffffff1673ffffffffffffffffffffffffffffffffffffffff1681526020019081526020016000208381548110611c0657fe5b9060005260206000200181905550816007600083815260200190815260200160002081905550505b600660008573ffffffffffffffffffffffffffffffffffffffff1673ffffffffffffffffffffffffffffffffffffffff168152602001908152602001600020805480919060019003611c809190612616565b5050505050565b600660008373ffffffffffffffffffffffffffffffffffffffff1673ffffffffffffffffffffffffffffffffffffffff168152602001908152602001600020805490506007600083815260200190815260200160002081905550600660008373ffffffffffffffffffffffffffffffffffffffff1673ffffffffffffffffffffffffffffffffffffffff1681526020019081526020016000208190806001815401808255809150509060018203906000526020600020016000909192909190915055505050565b611d5781611848565b15611d97576040517f08c379a0000000000000000000000000000000000000000000000000000000008152600401611d8e90613659565b60405180910390fd5b600073ffffffffffffffffffffffffffffffffffffffff168273ffffffffffffffffffffffffffffffffffffffff161415611e07576040517f08c379a0000000000000000000000000000000000000000000000000000000008152600401611dfe90613579565b60405180910390fd5b816002600083815260200190815260200160002060006101000a81548173ffffffffffffffffffffffffffffffffffffffff021916908373ffffffffffffffffffffffffffffffffffffffff160217905550611ea0600460008473ffffffffffffffffffffffffffffffffffffffff1673ffffffffffffffffffffffffffffffffffffffff1681526020019081526020016000206121e9565b808273ffffffffffffffffffffffffffffffffffffffff16600073ffffffffffffffffffffffffffffffffffffffff167fddf252ad1be2c89b69c2b068fc378daa952ba7f163c4a11628f55a4df523b3ef60405160405180910390a45050565b6008805490506009600083815260200190815260200160002081905550600881908060018154018082558091505090600182039060005260206000200160009091929091909150555050565b60606000821415611f94576040518060400160405280600181526020017f30000000000000000000000000000000000000000000000000000000000000008152509050612074565b600082905060005b60008214611fbe578080600101915050600a8281611fb657fe5b049150611f9c565b6060816040519080825280601f01601f191660200182016040528015611ff35781602001600182028038833980820191505090505b50905060006001830390505b6000861461206c57600a868161201157fe5b0660300160f81b8282806001900393508151811061202b57fe5b60200101907effffffffffffffffffffffffffffffffffffffffffffffffffffffffffffff1916908160001a905350600a868161206457fe5b049550611fff565b819450505050505b919050565b60606120b58383604051806020016040528060008152506040518060200160405280600081525060405180602001604052806000815250612249565b905092915050565b60008060007fc5d2460186f7233c927e7db2dcc703c0e500b653ca82273b7bfad8045d85a47060001b9050833f91508082141580156120ff57506000801b8214155b92505050919050565b600073ffffffffffffffffffffffffffffffffffffffff166003600083815260200190815260200160002060009054906101000a900473ffffffffffffffffffffffffffffffffffffffff1673ffffffffffffffffffffffffffffffffffffffff16146121c35760006003600083815260200190815260200160002060006101000a81548173ffffffffffffffffffffffffffffffffffffffff021916908373ffffffffffffffffffffffffffffffffffffffff1602179055505b50565b6121de600182600001546121ff90919063ffffffff16565b816000018190555050565b6001816000016000828254019250508190555050565b600061224183836040518060400160405280601e81526020017f536166654d6174683a207375627472616374696f6e206f766572666c6f77000081525061250b565b905092915050565b6060808690506060869050606086905060608690506060869050606081518351855187518951010101016040519080825280601f01601f1916602001820160405280156122a55781602001600182028038833980820191505090505b509050606081905060008090506000809050600090505b885181101561232a578881815181106122d157fe5b602001015160f81c60f81b8383806001019450815181106122ee57fe5b60200101907effffffffffffffffffffffffffffffffffffffffffffffffffffffffffffff1916908160001a90535080806001019150506122bc565b600090505b875181101561239d5787818151811061234457fe5b602001015160f81c60f81b83838060010194508151811061236157fe5b60200101907effffffffffffffffffffffffffffffffffffffffffffffffffffffffffffff1916908160001a905350808060010191505061232f565b600090505b8651811015612410578681815181106123b757fe5b602001015160f81c60f81b8383806001019450815181106123d457fe5b60200101907effffffffffffffffffffffffffffffffffffffffffffffffffffffffffffff1916908160001a90535080806001019150506123a2565b600090505b85518110156124835785818151811061242a57fe5b602001015160f81c60f81b83838060010194508151811061244757fe5b60200101907effffffffffffffffffffffffffffffffffffffffffffffffffffffffffffff1916908160001a9053508080600101915050612415565b600090505b84518110156124f65784818151811061249d57fe5b602001015160f81c60f81b8383806001019450815181106124ba57fe5b60200101907effffffffffffffffffffffffffffffffffffffffffffffffffffffffffffff1916908160001a9053508080600101915050612488565b82995050505050505050505095945050505050565b6000838311158290612553576040517f08c379a000000000000000000000000000000000000000000000000000000000815260040161254a9190613557565b60405180910390fd5b5060008385039050809150509392505050565b6040518060400160405280600073ffffffffffffffffffffffffffffffffffffffff168152602001600081525090565b828054600181600116156101000203166002900490600052602060002090601f016020900481019282601f106125d757805160ff1916838001178555612605565b82800160010185558215612605579182015b828111156126045782518255916020019190600101906125e9565b5b5090506126129190612642565b5090565b81548183558181111561263d5781836000526020600020918201910161263c9190612642565b5b505050565b61266491905b80821115612660576000816000905550600101612648565b5090565b90565b600081359050612676816139ea565b92915050565b600082601f83011261268d57600080fd5b60026126a061269b82613721565b6136f4565b915081838560408402820111156126b657600080fd5b60005b838110156126e657816126cc88826126f0565b8452602084019350604083019250506001810190506126b9565b5050505092915050565b600082601f83011261270157600080fd5b600261271461270f82613743565b6136f4565b9150818385602084028201111561272a57600080fd5b60005b8381101561275a578161274088826128e9565b84526020840193506020830192505060018101905061272d565b5050505092915050565b600082601f83011261277557600080fd5b600261278861278382613765565b6136f4565b9150818385602084028201111561279e57600080fd5b60005b838110156127ce57816127b488826128e9565b8452602084019350602083019250506001810190506127a1565b5050505092915050565b6000813590506127e781613a01565b92915050565b6000815190506127fc81613a01565b92915050565b60008135905061281181613a18565b92915050565b60008135905061282681613a2f565b92915050565b60008151905061283b81613a2f565b92915050565b600082601f83011261285257600080fd5b813561286561286082613787565b6136f4565b9150808252602083016020830185838301111561288157600080fd5b61288c838284613997565b50505092915050565b600082601f8301126128a657600080fd5b81356128b96128b4826137b3565b6136f4565b915080825260208301602083018583830111156128d557600080fd5b6128e0838284613997565b50505092915050565b6000813590506128f881613a46565b92915050565b60006020828403121561291057600080fd5b600061291e84828501612667565b91505092915050565b6000806040838503121561293a57600080fd5b600061294885828601612667565b925050602061295985828601612667565b9150509250929050565b60008060006060848603121561297857600080fd5b600061298686828701612667565b935050602061299786828701612667565b92505060406129a8868287016128e9565b9150509250925092565b600080600080608085870312156129c857600080fd5b60006129d687828801612667565b94505060206129e787828801612667565b93505060406129f8878288016128e9565b925050606085013567ffffffffffffffff811115612a1557600080fd5b612a2187828801612841565b91505092959194509250565b60008060408385031215612a4057600080fd5b6000612a4e85828601612667565b9250506020612a5f858286016127d8565b9150509250929050565b60008060408385031215612a7c57600080fd5b6000612a8a85828601612667565b9250506020612a9b858286016128e9565b9150509250929050565b6000806000806000806101808789031215612abf57600080fd5b6000612acd89828a01612667565b9650506020612ade89828a016128e9565b9550506040612aef89828a01612764565b9450506080612b0089828a0161267c565b935050610100612b1289828a01612764565b925050610140612b2489828a01612764565b9150509295509295509295565b600080600060608486031215612b4657600080fd5b6000612b5486828701612667565b9350506020612b65868287016128e9565b9250506040612b7686828701612802565b9150509250925092565b600060208284031215612b9257600080fd5b6000612ba0848285016127ed565b91505092915050565b60008060408385031215612bbc57600080fd5b6000612bca85828601612802565b925050602083013567ffffffffffffffff811115612be757600080fd5b612bf385828601612895565b9150509250929050565b600080600060608486031215612c1257600080fd5b6000612c2086828701612802565b935050602084013567ffffffffffffffff811115612c3d57600080fd5b612c4986828701612895565b925050604084013567ffffffffffffffff811115612c6657600080fd5b612c7286828701612841565b9150509250925092565b600060208284031215612c8e57600080fd5b6000612c9c84828501612817565b91505092915050565b600060208284031215612cb757600080fd5b6000612cc58482850161282c565b91505092915050565b600060208284031215612ce057600080fd5b6000612cee848285016128e9565b91505092915050565b6000612d038383612ed1565b60408301905092915050565b6000612d1b8383612f28565b60408301905092915050565b6000612d3383836133c2565b60208301905092915050565b6000612d4b83836133e0565b60208301905092915050565b612d608161393d565b82525050565b612d6f816138bf565b82525050565b612d7e816137fd565b612d88818461385b565b9250612d93826137df565b8060005b83811015612dc4578151612dab8782612cf7565b9650612db683613834565b925050600181019050612d97565b505050505050565b612dd5816137fd565b612ddf8184613866565b9250612dea826137df565b8060005b83811015612e1b578151612e028782612d0f565b9650612e0d83613834565b925050600181019050612dee565b505050505050565b612e2c81613813565b612e36818461387c565b9250612e41826137f3565b8060005b83811015612e72578151612e598782612d27565b9650612e648361384e565b925050600181019050612e45565b505050505050565b612e8381613813565b612e8d8184613892565b9250612e98826137f3565b8060005b83811015612ec9578151612eb08782612d3f565b9650612ebb8361384e565b925050600181019050612e9c565b505050505050565b612eda81613808565b612ee48184613871565b9250612eef826137e9565b8060005b83811015612f20578151612f078782612d27565b9650612f1283613841565b925050600181019050612ef3565b505050505050565b612f3181613808565b612f3b8184613887565b9250612f46826137e9565b8060005b83811015612f77578151612f5e8782612d3f565b9650612f6983613841565b925050600181019050612f4a565b505050505050565b612f88816138d1565b82525050565b612f97816138dd565b82525050565b6000612fa88261381e565b612fb2818561389d565b9350612fc28185602086016139a6565b612fcb816139d9565b840191505092915050565b612fdf8161394f565b82525050565b6000612ff082613829565b612ffa81856138ae565b935061300a8185602086016139a6565b613013816139d9565b840191505092915050565b600061302b6015836138ae565b91507f746f206164647265737320697320696e76616c696400000000000000000000006000830152602082019050919050565b600061306b602b836138ae565b91507f6e65774f776e6572206973206e6f7420616c6c6f77656420746f20626520746860008301527f65203020616464726573730000000000000000000000000000000000000000006020830152604082019050919050565b60006130d16012836138ae565b91507f636f6e74726163742069732070617573656400000000000000000000000000006000830152602082019050919050565b60006131116014836138ae565b91507f546f6b656e20646f6573206e6f742065786973740000000000000000000000006000830152602082019050919050565b60006131516049836138ae565b91507f6d73672e73656e646572206973206e6f7420746865206f776e6572206f66207460008301527f686520746f6b656e4964206f72206973417070726f766564466f72416c6c282960208301527f2069732066616c736500000000000000000000000000000000000000000000006040830152606082019050919050565b60006131dd6015836138ae565b91507f536f6c7574696f6e20697320696e636f727265637400000000000000000000006000830152602082019050919050565b600061321d602a836138ae565b91507f66726f6d2061646472657373206973206e6f7420746865206f776e6572206f6660008301527f2074686520746f6b656e000000000000000000000000000000000000000000006020830152604082019050919050565b60006132836016836138ae565b91507f746f6b656e496420616c726561647920657869737473000000000000000000006000830152602082019050919050565b60006132c36016836138ae565b91507f636f6e7472616374206973206e6f7420706175736564000000000000000000006000830152602082019050919050565b60006133036026836138ae565b91507f6d73672e73656e64657220697320746865206f776e6572206f6620746865207460008301527f6f6b656e496400000000000000000000000000000000000000000000000000006020830152604082019050919050565b60006133696023836138ae565b91507f5468697320736f6c7574696f6e2068617320616c7265616479206265656e207560008301527f73656400000000000000000000000000000000000000000000000000000000006020830152604082019050919050565b6133cb81613933565b82525050565b6133da81613933565b82525050565b6133e981613933565b82525050565b60006133fb8287612e7a565b60408201915061340b8286612dcc565b60808201915061341b8285612e7a565b60408201915061342b8284612e7a565b60408201915081905095945050505050565b60006020820190506134526000830184612d66565b92915050565b600060208201905061346d6000830184612d57565b92915050565b60006080820190506134886000830187612d57565b6134956020830186612d66565b6134a260408301856133d1565b81810360608301526134b48184612f9d565b905095945050505050565b6000610140820190506134d56000830187612e23565b6134e26040830186612d75565b6134ef60c0830185612e23565b6134fd610100830184612e23565b95945050505050565b600060208201905061351b6000830184612f7f565b92915050565b60006020820190506135366000830184612f8e565b92915050565b60006020820190506135516000830184612fd6565b92915050565b600060208201905081810360008301526135718184612fe5565b905092915050565b600060208201905081810360008301526135928161301e565b9050919050565b600060208201905081810360008301526135b28161305e565b9050919050565b600060208201905081810360008301526135d2816130c4565b9050919050565b600060208201905081810360008301526135f281613104565b9050919050565b6000602082019050818103600083015261361281613144565b9050919050565b60006020820190508181036000830152613632816131d0565b9050919050565b6000602082019050818103600083015261365281613210565b9050919050565b6000602082019050818103600083015261367281613276565b9050919050565b60006020820190508181036000830152613692816132b6565b9050919050565b600060208201905081810360008301526136b2816132f6565b9050919050565b600060208201905081810360008301526136d28161335c565b9050919050565b60006020820190506136ee60008301846133d1565b92915050565b6000604051905081810181811067ffffffffffffffff8211171561371757600080fd5b8060405250919050565b600067ffffffffffffffff82111561373857600080fd5b602082029050919050565b600067ffffffffffffffff82111561375a57600080fd5b602082029050919050565b600067ffffffffffffffff82111561377c57600080fd5b602082029050919050565b600067ffffffffffffffff82111561379e57600080fd5b601f19601f8301169050602081019050919050565b600067ffffffffffffffff8211156137ca57600080fd5b601f19601f8301169050602081019050919050565b6000819050919050565b6000819050919050565b6000819050919050565b600060029050919050565b600060029050919050565b600060029050919050565b600081519050919050565b600081519050919050565b6000602082019050919050565b6000602082019050919050565b6000602082019050919050565b600081905092915050565b600081905092915050565b600081905092915050565b600081905092915050565b600081905092915050565b600081905092915050565b600082825260208201905092915050565b600082825260208201905092915050565b60006138ca82613913565b9050919050565b60008115159050919050565b6000819050919050565b60007fffffffff0000000000000000000000000000000000000000000000000000000082169050919050565b600073ffffffffffffffffffffffffffffffffffffffff82169050919050565b6000819050919050565b600061394882613973565b9050919050565b600061395a82613961565b9050919050565b600061396c82613913565b9050919050565b600061397e82613985565b9050919050565b600061399082613913565b9050919050565b82818337600083830152505050565b60005b838110156139c45780820151818401526020810190506139a9565b838111156139d3576000848401525b50505050565b6000601f19601f8301169050919050565b6139f3816138bf565b81146139fe57600080fd5b50565b613a0a816138d1565b8114613a1557600080fd5b50565b613a21816138dd565b8114613a2c57600080fd5b50565b613a38816138e7565b8114613a4357600080fd5b50565b613a4f81613933565b8114613a5a57600080fd5b5056fea365627a7a7231582061926a7d28d08c198256c2af16987294721edf48995517d3f0a28f9d9388ba106c6578706572696d656e74616cf564736f6c6343000511004068747470733a2f2f73332d75732d776573742d322e616d617a6f6e6177732e636f6d2f756461636974792d626c6f636b636861696e2f63617073746f6e652f",
  "source": "pragma solidity >0.5.1;\npragma experimental ABIEncoderV2;\n\n// TODO define a contract call to the zokrates generated solidity contract <Verifier> or <renamedVerifier>\nimport \"./verifier.sol\";\nimport \"./ERC721Mintable.sol\";\n\ncontract ZokratesVerifier is Verifier {}\n\n// TODO define another contract named SolnSquareVerifier that inherits from your ERC721Mintable class\ncontract SolnSquareVerifier is ERC721Token {\n    ZokratesVerifier public zokratesContract;\n\n    // TODO define a solutions struct that can hold an index & an address\n    struct Solution {\n        address owner;\n        uint256 index;\n    }\n\n    // TODO define an array of the above struct\n    Solution[] solutionArray;\n\n    // TODO define a mapping to store unique solutions submitted\n    mapping(bytes32 => Solution) uniqueSolutions;\n\n    // TODO Create an event to emit when a solution is added\n    event SolutionAdded(\n        address indexed owner,\n        uint256 indexed index,\n        bytes32 key\n    );\n\n    constructor(\n        address verifierAddress,\n        string memory name,\n        string memory symbol\n    ) public ERC721Token(name, symbol) {\n        zokratesContract = ZokratesVerifier(verifierAddress);\n    }\n\n    // TODO Create a function to add the solutions to the array and emit the event\n    function addSolution(\n        address _owner,\n        uint256 _index,\n        bytes32 _key\n    ) public {\n        Solution memory solution = Solution(_owner, _index);\n\n        solutionArray.push(solution);\n\n        uniqueSolutions[_key] = solution;\n\n        emit SolutionAdded(_owner, _index, _key);\n    }\n\n    // TODO Create a function to mint new NFT only after the solution has been verified\n    //  - make sure the solution is unique (has not been used before)\n    //  - make sure you handle metadata as well as tokenSupply\n    function mintToken(\n        address _to,\n        uint256 _index,\n        uint256[2] memory a,\n        uint256[2][2] memory b,\n        uint256[2] memory c,\n        uint256[2] memory input\n    ) public {\n        bytes32 key = keccak256(abi.encodePacked(a, b, c, input));\n\n        require(\n            uniqueSolutions[key].owner == address(0x0),\n            \"This solution has already been used\"\n        );\n\n        require(\n            zokratesContract.verifyTx(a, b, c, input),\n            \"Solution is incorrect\"\n        );\n\n        addSolution(_to, _index, key);\n\n        mint(_to, _index);\n    }\n}\n",
  "sourcePath": "/Users/tobias/Code/blockchain_dapps/udacity_blockchain_development/5_capstone_real_estate_marketplace/eth-contracts/contracts/SolnSquareVerifier.sol",
  "compiler": {
    "name": "solc",
    "version": "0.5.17+commit.d19bba13.Emscripten.clang"
  },
  "schemaVersion": "3.4.7",
  "updatedAt": "2022-05-03T07:57:41.941Z",
  "networkType": "ethereum",
  "devdoc": {
    "methods": {
      "isApprovedForAll(address,address)": {
        "details": "Tells whether an operator is approved by a given owner",
        "params": {
          "operator": "operator address which you want to query the approval of",
          "owner": "owner address which you want to query the approval of"
        },
        "return": "bool whether the given operator is approved by the given owner"
      },
      "setApprovalForAll(address,bool)": {
        "details": "Sets or unsets the approval of a given operator An operator is allowed to transfer all tokens of the sender on their behalf",
        "params": {
          "approved": "representing the status of the approval to be set",
          "to": "operator address to set the approval"
        }
      },
      "supportsInterface(bytes4)": {
        "details": "implement supportsInterface(bytes4) using a lookup table"
      },
      "tokenByIndex(uint256)": {
        "details": "Gets the token ID at a given index of all the tokens in this contract Reverts if the index is greater or equal to the total number of tokens",
        "params": {
          "index": "uint256 representing the index to be accessed of the tokens list"
        },
        "return": "uint256 token ID at the given index of the tokens list"
      },
      "tokenOfOwnerByIndex(address,uint256)": {
        "details": "Gets the token ID at a given index of the tokens list of the requested owner",
        "params": {
          "index": "uint256 representing the index to be accessed of the requested tokens list",
          "owner": "address owning the tokens list to be accessed"
        },
        "return": "uint256 token ID at the given index of the tokens list owned by the requested address"
      },
      "totalSupply()": {
        "details": "Gets the total amount of tokens stored by the contract",
        "return": "uint256 representing the total amount of tokens"
      }
    }
  },
  "userdoc": {
    "methods": {}
  }
}